{
  "transactions": [
    {
      "hash": "0x5af978108f46083fffcea97328325b21c9831ed6bc441abfab9ff2d0aa9e59be",
      "transactionType": "CALL",
      "contractName": null,
      "contractAddress": "0xb3772eae4c35f3ae4c778199aa6c072ce9a50137",
      "function": "unlock(bytes16)",
      "arguments": [
        "0x8d42fd0190a469a5910d815fdf21c61500000000000000000000000000000000"
      ],
      "transaction": {
        "from": "0x5cdf2e6f19348cc7da8b74ecf9b2a030dc3ac752",
        "to": "0xb3772eae4c35f3ae4c778199aa6c072ce9a50137",
        "gas": "0x819b",
        "value": "0x0",
        "input": "0xe1afb08c8d42fd0190a469a5910d815fdf21c61500000000000000000000000000000000",
        "nonce": "0xc",
        "chainId": "0x13882"
      },
      "additionalContracts": [],
      "isFixedGasLimit": false
    }
  ],
  "receipts": [
    {
      "status": "0x1",
      "cumulativeGasUsed": "0xfbc08",
      "logs": [
        {
          "address": "0x0000000000000000000000000000000000001010",
          "topics": [
            "0x4dfe1bbbcf077ddc3e01291eea2d5c70c2b422b415d95645b9adcfd678cb1d63",
            "0x0000000000000000000000000000000000000000000000000000000000001010",
            "0x0000000000000000000000005cdf2e6f19348cc7da8b74ecf9b2a030dc3ac752",
            "0x0000000000000000000000006dc2dd54f24979ec26212794c71afefed722280c"
          ],
          "data": "0x000000000000000000000000000000000000000000000000000018085d0df2000000000000000000000000000000000000000000000000000083412667cdad150000000000000000000000000000000000000000000001a137f84a47eda6afe40000000000000000000000000000000000000000000000000083291e0abfbb150000000000000000000000000000000000000000000001a137f862504ab4a1e4",
          "blockHash": "0xab56a195a02e9ec731e777c44b44cb5b0a7d206dc8611fa96c39c781d472dc44",
          "blockNumber": "0x705017",
          "transactionHash": "0x5af978108f46083fffcea97328325b21c9831ed6bc441abfab9ff2d0aa9e59be",
          "transactionIndex": "0x3",
          "logIndex": "0x1d",
          "removed": false
        }
      ],
      "logsBloom": "0x00000000000000000000000000000000000000000000000000000000000000000000000000000000000000000000000000008000000000000000000000000000000000200000000000000000000000800000000000000000000100080000000000000004000000000000000000000000000000000000000080000000000000020000000001000000000000000040000000000000000000000000000000000000200000000000000000000000000000000000000000000000000000000000004000000000000000000001000000000000000000000000000000100000000000000000000000000000000000000000000000000000000000000000000000100000",
      "type": "0x2",
      "transactionHash": "0x5af978108f46083fffcea97328325b21c9831ed6bc441abfab9ff2d0aa9e59be",
      "transactionIndex": "0x3",
      "blockHash": "0xab56a195a02e9ec731e777c44b44cb5b0a7d206dc8611fa96c39c781d472dc44",
      "blockNumber": "0x705017",
      "gasUsed": "0x5dd6",
      "effectiveGasPrice": "0x4190ab10",
      "from": "0x5cdf2e6f19348cc7da8b74ecf9b2a030dc3ac752",
      "to": "0xb3772eae4c35f3ae4c778199aa6c072ce9a50137",
      "contractAddress": null
    }
  ],
  "libraries": [],
  "pending": [],
  "returns": {},
  "timestamp": 1716390401,
  "chain": 80002,
  "commit": "8f1b470"
}